:020000040000fa
:080000000002040000000000f2
:020000040000fa
:040008004a030000a7
:020000040000fa
:04000c00c802000026
:020000040000fa
:040010000a030000df
:020000040000fa
:04001400e8020000fe
:020000040000fa
:040018002a030000b7
:020000040000fa
:04001c004a03000093
:020000040000fa
:040020004a0300008f
:020000040000fa
:040024004a0300008b
:020000040000fa
:040028004a03000087
:020000040000fa
:04002c004a03000083
:020000040000fa
:040030004a0300007f
:020000040000fa
:040034004a0300007b
:020000040000fa
:040038004a03000077
:020000040000fa
:04003c004a03000073
:020000040000fa
:040040004a0300006f
:020000040000fa
:040044004a0300006b
:020000040000fa
:040048004a03000067
:020000040000fa
:04004c004a03000063
:020000040000fa
:040050004a0300005f
:020000040000fa
:040054004a0300005b
:020000040000fa
:040058004a03000057
:020000040000fa
:04005c004a03000053
:020000040000fa
:040060004a0300004f
:020000040000fa
:040064004a0300004b
:020000040000fa
:040068004a03000047
:020000040000fa
:04006c004a03000043
:020000040000fa
:040070004a0300003f
:020000040000fa
:040074004a0300003b
:020000040000fa
:040078004a03000037
:020000040000fa
:04007c004a03000033
:020000040000fa
:040080004a0300002f
:020000040000fa
:040084004a0300002b
:020000040000fa
:040088004a03000027
:020000040000fa
:04008c004a03000023
:020000040000fa
:040090004a0300001f
:020000040000fa
:040094004a0300001b
:020000040000fa
:040098004a03000017
:020000040000fa
:04009c004a03000013
:020000040000fa
:0400a0004a0300000f
:020000040000fa
:0400a4004a0300000b
:020000040000fa
:0400a8004a03000007
:020000040000fa
:0400ac004a03000003
:020000040000fa
:0400b0004a030000ff
:020000040000fa
:0400b4004a030000fb
:020000040000fa
:0400b8004a030000f7
:020000040000fa
:0400bc004a030000f3
:020000040000fa
:0400c0004a030000ef
:020000040000fa
:0400c4004a030000eb
:020000040000fa
:0400c8004a030000e7
:020000040000fa
:0400cc004a030000e3
:020000040000fa
:0400d0004a030000df
:020000040000fa
:0400d4004a030000db
:020000040000fa
:0400d8004a030000d7
:020000040000fa
:0400dc004a030000d3
:020000040000fa
:0400e0004a030000cf
:020000040000fa
:0400e4004a030000cb
:020000040000fa
:0400e8004a030000c7
:020000040000fa
:0400ec004a030000c3
:020000040000fa
:0400f0004a030000bf
:020000040000fa
:0400f4004a030000bb
:020000040000fa
:0400f8004a030000b7
:020000040000fa
:0400fc004a030000b3
:020000040000fa
:040100004a030000ae
:020000040000fa
:040104004a030000aa
:020000040000fa
:040108004a030000a6
:020000040000fa
:04010c004a030000a2
:020000040000fa
:040110004a0300009e
:020000040000fa
:040114004a0300009a
:020000040000fa
:040118004a03000096
:020000040000fa
:04011c004a03000092
:020000040000fa
:040120004a0300008e
:020000040000fa
:040124004a0300008a
:020000040000fa
:040128004a03000086
:020000040000fa
:04012c004a03000082
:020000040000fa
:040130004a0300007e
:020000040000fa
:040134004a0300007a
:020000040000fa
:040138004a03000076
:020000040000fa
:04013c004a03000072
:020000040000fa
:040140004a0300006e
:020000040000fa
:040144004a0300006a
:020000040000fa
:040148004a03000066
:020000040000fa
:04014c004a03000062
:020000040000fa
:040150004a0300005e
:020000040000fa
:040154004a0300005a
:020000040000fa
:040158004a03000056
:020000040000fa
:04015c004a03000052
:020000040000fa
:040160004a0300004e
:020000040000fa
:040164004a0300004a
:020000040000fa
:040168004a03000046
:020000040000fa
:040208004a030000a5
:020000040000fa
:04020c00c802000024
:020000040000fa
:040210000a030000dd
:020000040000fa
:04021400e8020000fc
:020000040000fa
:040218002a030000b5
:020000040000fa
:04021c004a03000091
:020000040000fa
:040220004a0300008d
:020000040000fa
:040224004a03000089
:020000040000fa
:040228004a03000085
:020000040000fa
:04022c004a03000081
:020000040000fa
:040230004a0300007d
:020000040000fa
:040234004a03000079
:020000040000fa
:040238004a03000075
:020000040000fa
:04023c004a03000071
:020000040000fa
:040240004a0300006d
:020000040000fa
:040244004a03000069
:020000040000fa
:040248004a03000065
:020000040000fa
:04024c004a03000061
:020000040000fa
:040250004a0300005d
:020000040000fa
:040254004a03000059
:020000040000fa
:040258004a03000055
:020000040000fa
:04025c004a03000051
:020000040000fa
:040260004a0300004d
:020000040000fa
:040264004a03000049
:020000040000fa
:040268004a03000045
:020000040000fa
:04026c004a03000041
:020000040000fa
:040270004a0300003d
:020000040000fa
:040274004a03000039
:020000040000fa
:040278004a03000035
:020000040000fa
:04027c004a03000031
:020000040000fa
:040280004a0300002d
:020000040000fa
:040284004a03000029
:020000040000fa
:040288004a03000025
:020000040000fa
:04028c004a03000021
:020000040000fa
:040290004a0300001d
:020000040000fa
:040294004a03000019
:020000040000fa
:040298004a03000015
:020000040000fa
:04029c004a03000011
:020000040000fa
:0402a0004a0300000d
:020000040000fa
:0402a4004a03000009
:020000040000fa
:0402a8004a03000005
:020000040000fa
:0402ac004a03000001
:020000040000fa
:0402b0004a030000fd
:020000040000fa
:0402b4004a030000f9
:020000040000fa
:0402b8004a030000f5
:020000040000fa
:0402bc004a030000f1
:020000040000fa
:0402c0004a030000ed
:020000040000fa
:0402c4004a030000e9
:020000040000fa
:0402c8004a030000e5
:020000040000fa
:0402cc004a030000e1
:020000040000fa
:0402d0004a030000dd
:020000040000fa
:0402d4004a030000d9
:020000040000fa
:0402d8004a030000d5
:020000040000fa
:0402dc004a030000d1
:020000040000fa
:0402e0004a030000cd
:020000040000fa
:0402e4004a030000c9
:020000040000fa
:0402e8004a030000c5
:020000040000fa
:0402ec004a030000c1
:020000040000fa
:0402f0004a030000bd
:020000040000fa
:0402f4004a030000b9
:020000040000fa
:0402f8004a030000b5
:020000040000fa
:0402fc004a030000b1
:020000040000fa
:040300004a030000ac
:020000040000fa
:040304004a030000a8
:020000040000fa
:040308004a030000a4
:020000040000fa
:04030c004a030000a0
:020000040000fa
:040310004a0300009c
:020000040000fa
:040314004a03000098
:020000040000fa
:040318004a03000094
:020000040000fa
:04031c004a03000090
:020000040000fa
:040320004a0300008c
:020000040000fa
:040324004a03000088
:020000040000fa
:040328004a03000084
:020000040000fa
:04032c004a03000080
:020000040000fa
:040330004a0300007c
:020000040000fa
:040334004a03000078
:020000040000fa
:040338004a03000074
:020000040000fa
:04033c004a03000070
:020000040000fa
:040340004a0300006c
:020000040000fa
:040344004a03000068
:020000040000fa
:040348004a03000064
:020000040000fa
:04034c004a03000060
:020000040000fa
:040350004a0300005c
:020000040000fa
:040354004a03000058
:020000040000fa
:040358004a03000054
:020000040000fa
:04035c004a03000050
:020000040000fa
:040360004a0300004c
:020000040000fa
:040364004a03000048
:020000040000fa
:040368004a03000044
:020000040000fa
:100400006f8220000eff20000e0188000000000017
:10041000000020000000e000020032000001200087
:1004200020028800140007009c0007000000e00084
:1004300003003a00005f20000100200002003700a6
:100440000000200001002000810f70000100320038
:1004500014000700000020000000e000020032004d
:1004600000000200000000008c05020000000000f7
:100470000040da000000fe004440a90020022000f5
:100480000000e0000300320000002000a00188000e
:100490004440a800000006008a1f78008b1f7800e7
:1004a0000000060091018800800478000000eb0045
:1004b0001a003700e284440032a0b4009905ba0063
:1004c000e284440032a0b4009906ba00e2844400f9
:1004d00032a0b4000006eb00476fde00fd07b2005b
:1004e000636ce10003003a00ebff07000000eb0043
:1004f0000a003700606ce10004003a00005deb0088
:100500008b05e900fdff3e00040037006168e10053
:10051000010032000086eb000b00070019c7ba008b
:100520001905ba000e04e00003003a000a00e000da
:10053000e0ff3a0000000600fe07b2009e018800be
:100540008a047800f5ff3700395dba008b05e900b1
:100550000c003200295dba008b05e900080032006a
:100560000c00e00003003a00e284440032a0b40032
:10057000f5ff370019ddba008b05e900faff3a00f4
:100580008904e800e184440032a0b40000000600c1
:100590003600f800809fbe00829fbe00849fbe0090
:1005a000869fbe000000fa008020a9000000eb003a
:1005b0006f0107000080fa004f03be004f02be002b
:1005c0004f01be004f00be003600f900004006009b
:1005d0003600f800809fbe00829fbe00849fbe0050
:1005e000869fbe000000fa00680107008040a90055
:1005f000100020005e0107000080fa004f03be00db
:100600004f02be004f01be004f00be003600f90091
:10061000004006003600f800809fbe00829fbe00aa
:10062000849fbe00869fbe000000fa008060a90083
:10063000200020004e0107000080fa004f03be009a
:100640004f02be004f01be004f00be003600f90051
:10065000004006003600f800809fbe00829fbe006a
:10066000849fbe00869fbe000000fa008080a90023
:10067000300020003e0107000080fa004f03be005a
:100680004f02be004f01be004f00be003600f90011
:10069000004006000040da000000fe0000000500f7
:020000040000fa
:1006a0005379000073740000656d00002042000063
:1006b0006f6f0000746900006e6700002e2e00004e
:1006c0002e0000004d610000646500002062000003
:1006d0007920000044490000535000004c00000005
:0406e00000400000d6
:020000040000fa
:1006e4000200fa0007e2a90071168000000620004b
:1006f4000100700070168800401680000050a000b1
:1007040040168800401680000060a1004016880052
:10071400601680000060a000601688000000eb00f6
:10072400000f7800120037005116800000022000ec
:10073400008060000000e00011003a0060168000b4
:100744000060a10060168800000520000100200060
:1007540014010700601680000060a0006016880085
:1007640000052000010020000e0107001e0fe80014
:100774001e007800e80f5000ebff34000100370042
:1007840000000000401680000050a10040168800c0
:10079400601680000050a10060168800000520004b
:1007a40001002000ff000700601680000060a00028
:1007b400601688000005200001002000f9000700f1
:1007c400601680000050a00060168800000520001c
:1007d40001002000f30007004116800000062000fd
:1007e40001007000401688000080fa000000060036
:1007f4000000fa000622ef000822ef00d0092000d2
:10080400201088000722a8008620a90007e2a8007b
:100814000080fa00000006000000fa00000000005a
:1008240030108000610060000000e000fcff3a002e
:1008340030108000620060000000e000f8ff3a0021
:1008440030108000640060000000e000f4ff3a0013
:1008540030108000680060000000e000f0ff3a0003
:1008640030108000700060000000e000ecff3a00ef
:100874004110800000002400008060000000e000bf
:10088400e7ff3a000080fa00000006000000fa00ca
:10089400e1ff07000602a8000080fa00000006003d
:1008a4000000fa00dcff07000642a8000080fa00fe
:1008b400000006000200fa00004f7800d6ff07008f
:1008c4001e80fb0010108800d3ff0700401080003a
:1008d4004f00de00004078000080fa0000000600af
:1008e4000400fa0020479800314798000040eb00cc
:1008f400004f7800e5ff0700c0c7b300edff070015
:100904001e4f70002e409000eaff07001e4f70003b
:100914003e409000e7ff07001e4f7000e0ff070015
:100924001e4078000080fa00000006000200fa0071
:10093400004f78009e4078000040eb00e8ff07007d
:100944000080fa00000006000200fa00004f780060
:100954009e40780000c4b300e1ff07000080fa0065
:10096400000006000000fa0000502300c10020002f
:100974008c00070080c3b300ecff0700008823004d
:10098400110020008700070080c3b300e7ff0700c1
:1009940000962000010020008200070080c3b300fd
:1009a400e2ff0700c0c0b300e0ff070010c0b300bf
:1009b400deff070000d027000100200079000700b7
:1009c40060c0b300d9ff070000d027000100200059
:1009d400740007000080fa00000006000200fa001c
:1009e400004f7800114798001e80fb0061006000f2
:1009f40001372800e14078001e40900000c040000c
:100a04000074a000c9ff07000080fa00000006007f
:100a14000200fa00000f7800040037001e0078007e
:100a2400104078001e0fe800c7ff07001e00780082
:100a3400104078000004e000f8ff3a000080fa005b
:100a4400000006000000fa00c422ef00cc22ef00f0
:100a5400d422ef0070f92000001688000080eb001b
:100a640040168800f03f2000801688005620ef00d2
:100a74005820ef005a20ef006e20ef007020ef00a6
:100a84007220ef00c622ef00ce22ef00d622ef0044
:100a9400f000200000278800f0012f0010278800b4
:100aa40070002000202788000080fa000000060063
:100ab4000000fa0000002100203a88004827ef00d7
:100ac4004e27ef007027ef007227ef007427ef0026
:100ad4007627ef001200200080072000a1092000e3
:100ae4003374200080497800814978008249780075
:100af4000001eb0060042000710520002374200035
:100b04008049780081497800824978000080fa00a1
:100b1400000006000000fa004300070000802a00dd
:100b2400110620001f000700edfe070030ff07003c
:100b34008cff07008040eb000040eb00a7ff07009c
:100b440000352800b2ff07008040eb0010c0b3005e
:100b5400a2ff070020362800adff07000040220056
:100b6400410f20000f000700f2ff37000200fa00d7
:100b7400000f78009e007800214188000000fe00ec
:100b84000080fa00000006000000fa000080200047
:100b94008007780080812000000188000080fa002e
:040ba4000000060047
:020000040000fa
:100ba800f03fb1000180b10006003500ee030900f6
:100bb80000000000403fb1000180b100fbff3d0094
:100bc8001000b000203fb00002003500008009008e
:080bd80000000000000006000f
:020000040000fa
:100be00020080000040000000000000024080000ad
:100bf0000200000002000000ffff000000080000eb
:0c0c0000200000000000000000000000c8
:020000040000fa
:100c0c00809fbe00ec8057003100780000418800c6
:100c1c001100780022e8b7004f00be00000006006b
:100c2c000000fa0085ff0700030007009eff070085
:100c3c000080fa00000006000000fa000080fa00b4
:040c4c00000006009e
:020000040000fa
:0200000401f009
:04000000ffffff00ff
:020000040000fa
:0200000401f009
:04000800ffffff00f7
:020000040000fa
:0200000401f009
:04000c00d9ff000018
:020000040000fa
:0200000401f009
:04001000bbff000032
:020000040000fa
:0200000401f009
:040014005fff00008a
:020000040000fa
:0200000401f009
:04001800efff0000f6
:020000040000fa
:0200000401f009
:04001c00feff0000e3
:020000040000fa
:0200000401f009
:04002000ffff0000de
:00000001FF
